:0400000035EF3FF0A9
:107E6A00000138EF3FF00F0EC16E000E936E8A804C
:107E7A00060E026E130E016EAE0EE82EFED7012E0E
:107E8A00FCD7022EFAD78A82060E026E130E016EF4
:107E9A00AE0EE82EFED7012EFCD7022EFAD78A8420
:107EAA00060E026E130E016EAE0EE82EFED7012EDE
:107EBA00FCD7022EFAD78A86060E026E130E016EC0
:107ECA00AE0EE82EFED7012EFCD7022EFAD78A88EC
:107EDA00060E026E130E016EAE0EE82EFED7012EAE
:107EEA00FCD7022EFAD78A8A060E026E130E016E8C
:107EFA00AE0EE82EFED7012EFCD7022EFAD78A8CB8
:107F0A00060E026E130E016EAE0EE82EFED7012E7D
:107F1A00FCD7022EFAD78A8E060E026E130E016E57
:107F2A00AE0EE82EFED7012EFCD7022EFAD78A9083
:107F3A00060E026E130E016EAE0EE82EFED7012E4D
:107F4A00FCD7022EFAD78A92060E026E130E016E23
:107F5A00AE0EE82EFED7012EFCD7022EFAD78A944F
:107F6A00060E026E130E016EAE0EE82EFED7012E1D
:107F7A00FCD7022EFAD78A96060E026E130E016EEF
:107F8A00AE0EE82EFED7012EFCD7022EFAD78A981B
:107F9A00060E026E130E016EAE0EE82EFED7012EED
:107FAA00FCD7022EFAD78A9A060E026E130E016EBB
:107FBA00AE0EE82EFED7012EFCD7022EFAD78A9CE7
:107FCA00060E026E130E016EAE0EE82EFED7012EBD
:107FDA00FCD7022EFAD78A9E060E026E130E016E87
:107FEA00AE0EE82EFED7012EFCD7022EFAD73CEFB2
:067FFA003FF000EF00F073
:020000040020DA
:08000000FFFFFFFFFFFFFFFF00
:020000040030CA
:0E000000000C1F1FFF8385FF0FC00FE00F4095
:00000001FF
